/*
 * Wallet API
 * # Introduction Wallet API는 클레이튼 계정을 만들어 관리하고 트랜잭션을 전송하는 API입니다. Wallet API로 Klaytn 계정을 만들면 여러분은 개인키를 따로 관리할 필요가 없습니다. Wallet API는 BApp을 위해 Klaytn 계정 개인키를 안전하게 보관하는 지갑을 제공합니다. Wallet API 사용에 관한 자세한 내용은 [튜토리얼](링크)을 확인하십시오.  Wallet API는 크게 Klaytn 계정을 만들고 관리하는 Account 파트와 여러 종류의 트랜잭션을 전송하는 Transaction 파트로 나뉩니다.  Wallet API는 Klaytn 계정을 생성, 삭제, 모니터링하고 계정을 다중 서명 계정(Multisig 계정)으로 업데이트하며 KAS에 등록된 모든 계정의 개인키를 관리합니다.  또 Wallet API는 트랜잭션을 만들어 Klaytn에 전송합니다. 이 트랜잭션에는 다중 서명 계정이 보내는 트랜잭션도 포함됩니다. 다중 서명 시 임계값\\(Threshold\\)을 만족하면 트랜잭션은 Klaytn에 자동으로 전송됩니다. 다중 서명에 관한 자세한 내용은 [다음](링크)을 확인하십시오.  트랜잭션은 크게 기본 트랜잭션과 수수료 대납 트랜잭션으로 나뉩니다. 수수료 대납 트랜잭션은 크게 글로벌 수수료 대납 트랜잭션과 사용자 수수료 대납 트랜잭션으로 나뉩니다. 글로벌 수수료 대납 트랜잭션은 Ground X의 KAS 계정에서 트랜잭션 수수료를 일단 대납해주고 나중에 여러분에게 이 수수료를 청구하는 방식입니다. 사용자 수수료 대납 트랜잭션은 여러분이 직접 트랜잭션 수수료를 대납하는 계정을 만들고, 트랜잭션을 보낼 때 이 대납 계정이 트랜잭션 수수료를 납부하도록 하는 방식입니다.  Wallet API는 아래와 같은 기능 및 제약사항을 갖고 있습니다.  | Version | Item | Description | | :--- | :--- | :--- | | 2.0 | 제약사항 | Cypress(Mainnet), Baobab(Testnet) 지원\\(Service Chain 미지원\\) | |  |  | 외부 관리키에 대한 계정 관리 미지원 | |  |  | RLP 인코딩된 트랜잭션의 다중 서명 미지원 | |  | 계정관리 | 계정 생성, 조회, 삭제 | |  |  | 다중 서명 계정 업데이트 | |  | 트랜잭션 관리 | [Basic](https://ko.docs.klaytn.com/klaytn/design/transactions/basic) 트랜잭션 생성 및 전송 | |  |  | [FeeDelegatedWithRatio](https://ko.docs.klaytn.com/klaytn/design/transactions/partial-fee-delegation) 트랜잭션 생성 및 전송 | |  |  | RLP 인코딩된 트랜잭션\\([Legacy](https://ko.docs.klaytn.com/klaytn/design/transactions/basic#txtypelegacytransaction), [Basic](https://ko.docs.klaytn.com/klaytn/design/transactions/basic), [FeeDelegatedWithRatio](https://ko.docs.klaytn.com/klaytn/design/transactions/partial-fee-delegation)\\) 생성 및 전송 | |  |  | 다중 서명 트랜잭션 관리 및 전송 | |  | 관리자 | 리소스 풀 관리\\(생성, 풀 조회, 삭제, 계정 조회\\) |  
 *
 * OpenAPI spec version: 2.0
 * 
 *
 * NOTE: This class is auto generated by the swagger code generator program.
 * https://github.com/swagger-api/swagger-codegen.git
 * Do not edit the class manually.
 */

package io.swagger.client.api.wallet.model;

import com.google.gson.annotations.SerializedName;
import io.swagger.v3.oas.annotations.media.Schema;

import java.util.ArrayList;
import java.util.List;
import java.util.Objects;

/**
 * Klaytn에 전송된 트랜잭션 정보
 */
@Schema(description = "Klaytn에 전송된 트랜잭션 정보")
@javax.annotation.Generated(value = "io.swagger.codegen.v3.generators.java.JavaClientCodegen", date = "2020-09-15T04:27:12.757Z[GMT]")
public class TransactionResult {
  @SerializedName("from")
  private String from = null;

  @SerializedName("gas")
  private Long gas = null;

  @SerializedName("gasPrice")
  private String gasPrice = null;

  @SerializedName("input")
  private String input = null;

  @SerializedName("rlp")
  private String rlp = null;

  @SerializedName("signatures")
  private List<Signature> signatures = null;

  @SerializedName("status")
  private String status = null;

  @SerializedName("to")
  private String to = null;

  @SerializedName("transactionHash")
  private String transactionHash = null;

  @SerializedName("value")
  private String value = null;

  @SerializedName("nonce")
  private Long nonce = null;

  @SerializedName("transactionId")
  private String transactionId = null;

  @SerializedName("typeInt")
  private Long typeInt = null;

  @SerializedName("accountKey")
  private String accountKey = null;

  public TransactionResult from(String from) {
    this.from = from;
    return this;
  }

   /**
   * 트랜잭션을 보낸 Klaytn 계정 주소
   * @return from
  **/
  @Schema(example = "0x85b98485444c89880cd9c48807cef727c296f2da", description = "트랜잭션을 보낸 Klaytn 계정 주소")
  public String getFrom() {
    return from;
  }

  public void setFrom(String from) {
    this.from = from;
  }

  public TransactionResult gas(Long gas) {
    this.gas = gas;
    return this;
  }

   /**
   * 해당 트랜잭션을 보낼 때 사용할 트랜잭션 수수료(gas)의 최대값
   * @return gas
  **/
  @Schema(example = "1000000", description = "해당 트랜잭션을 보낼 때 사용할 트랜잭션 수수료(gas)의 최대값")
  public Long getGas() {
    return gas;
  }

  public void setGas(Long gas) {
    this.gas = gas;
  }

  public TransactionResult gasPrice(String gasPrice) {
    this.gasPrice = gasPrice;
    return this;
  }

   /**
   * 해당 트랜잭션을 보낼 때 사용할 트랜잭션 수수료(gas) 비용
   * @return gasPrice
  **/
  @Schema(example = "0x5d21dba00", description = "해당 트랜잭션을 보낼 때 사용할 트랜잭션 수수료(gas) 비용")
  public String getGasPrice() {
    return gasPrice;
  }

  public void setGasPrice(String gasPrice) {
    this.gasPrice = gasPrice;
  }

  public TransactionResult input(String input) {
    this.input = input;
    return this;
  }

   /**
   * 트랜잭션을 Klaytn에 보낼 때 함께 보내는 데이터
   * @return input
  **/
  @Schema(example = "0x", description = "트랜잭션을 Klaytn에 보낼 때 함께 보내는 데이터")
  public String getInput() {
    return input;
  }

  public void setInput(String input) {
    this.input = input;
  }

  public TransactionResult rlp(String rlp) {
    this.rlp = rlp;
    return this;
  }

   /**
   * 해당 트랜잭션의 RLP 직렬화(serialization) 값
   * @return rlp
  **/
  @Schema(example = "0xf870808505d21dba00830f424094a311e7022a4db250689c89d99848f74ea5098f7d89121111111111111111808207f5a03e7173bf7a303b4e1bb6f8723b494bcaa196cf7b9d7af18a22ceda7f2e9c9226a057bf51a5f52d900d58470f5e28f25881eb6d3837502ba0bab13f022398ddbc26", description = "해당 트랜잭션의 RLP 직렬화(serialization) 값")
  public String getRlp() {
    return rlp;
  }

  public void setRlp(String rlp) {
    this.rlp = rlp;
  }

  public TransactionResult signatures(List<Signature> signatures) {
    this.signatures = signatures;
    return this;
  }

  public TransactionResult addSignaturesItem(Signature signaturesItem) {
    if (this.signatures == null) {
      this.signatures = new ArrayList<Signature>();
    }
    this.signatures.add(signaturesItem);
    return this;
  }

   /**
   * Get signatures
   * @return signatures
  **/
  @Schema(description = "")
  public List<Signature> getSignatures() {
    return signatures;
  }

  public void setSignatures(List<Signature> signatures) {
    this.signatures = signatures;
  }

  public TransactionResult status(String status) {
    this.status = status;
    return this;
  }

   /**
   * 해당 트랜잭션 전송 후의 상태(“Submitted” 또는 “Pending”)
   * @return status
  **/
  @Schema(example = "Submitted", description = "해당 트랜잭션 전송 후의 상태(“Submitted” 또는 “Pending”)")
  public String getStatus() {
    return status;
  }

  public void setStatus(String status) {
    this.status = status;
  }

  public TransactionResult to(String to) {
    this.to = to;
    return this;
  }

   /**
   * KLAY를 받는 Klaytn 계정 주소
   * @return to
  **/
  @Schema(example = "0xa311e7022a4db250689c89d99848f74ea5098f7d", description = "KLAY를 받는 Klaytn 계정 주소")
  public String getTo() {
    return to;
  }

  public void setTo(String to) {
    this.to = to;
  }

  public TransactionResult transactionHash(String transactionHash) {
    this.transactionHash = transactionHash;
    return this;
  }

   /**
   * 해당 트랜잭션에 대한 해시값
   * @return transactionHash
  **/
  @Schema(example = "0x433d70e6bdbce725ac9472e9fe1242fa0e5bdcd1b60fa21b3dcadf858055b47b", description = "해당 트랜잭션에 대한 해시값")
  public String getTransactionHash() {
    return transactionHash;
  }

  public void setTransactionHash(String transactionHash) {
    this.transactionHash = transactionHash;
  }

  public TransactionResult value(String value) {
    this.value = value;
    return this;
  }

   /**
   * peb 단위로 환산된 KLAY
   * @return value
  **/
  @Schema(example = "0x121111111111111111", description = "peb 단위로 환산된 KLAY")
  public String getValue() {
    return value;
  }

  public void setValue(String value) {
    this.value = value;
  }

  public TransactionResult nonce(Long nonce) {
    this.nonce = nonce;
    return this;
  }

   /**
   * 현재 해당 트랜잭션을 보내는 이가 과거에 보냈던 모든 트랜잭션의 개수
   * @return nonce
  **/
  @Schema(example = "1", required = true, description = "현재 해당 트랜잭션을 보내는 이가 과거에 보냈던 모든 트랜잭션의 개수")
  public Long getNonce() {
    return nonce;
  }

  public void setNonce(Long nonce) {
    this.nonce = nonce;
  }

  public TransactionResult transactionId(String transactionId) {
    this.transactionId = transactionId;
    return this;
  }

   /**
   * Multisig 트랜잭션의 ID
   * @return transactionId
  **/
  @Schema(example = "0x7ee5d33b931e1c172dee21027aeeca31c33ddd44efd02cd3fd4fdfa0a86f888e", description = "Multisig 트랜잭션의 ID")
  public String getTransactionId() {
    return transactionId;
  }

  public void setTransactionId(String transactionId) {
    this.transactionId = transactionId;
  }

  public TransactionResult typeInt(Long typeInt) {
    this.typeInt = typeInt;
    return this;
  }

   /**
   * Get typeInt
   * @return typeInt
  **/
  @Schema(example = "16", description = "")
  public Long getTypeInt() {
    return typeInt;
  }

  public void setTypeInt(Long typeInt) {
    this.typeInt = typeInt;
  }

  public TransactionResult accountKey(String accountKey) {
    this.accountKey = accountKey;
    return this;
  }

   /**
   * 새롭게 업데이트된 계정 키
   * @return accountKey
  **/
  @Schema(example = "0x03c0", description = "새롭게 업데이트된 계정 키")
  public String getAccountKey() {
    return accountKey;
  }

  public void setAccountKey(String accountKey) {
    this.accountKey = accountKey;
  }


  @Override
  public boolean equals(Object o) {
    if (this == o) {
      return true;
    }
    if (o == null || getClass() != o.getClass()) {
      return false;
    }
    TransactionResult transactionResult = (TransactionResult) o;
    return Objects.equals(this.from, transactionResult.from) &&
        Objects.equals(this.gas, transactionResult.gas) &&
        Objects.equals(this.gasPrice, transactionResult.gasPrice) &&
        Objects.equals(this.input, transactionResult.input) &&
        Objects.equals(this.rlp, transactionResult.rlp) &&
        Objects.equals(this.signatures, transactionResult.signatures) &&
        Objects.equals(this.status, transactionResult.status) &&
        Objects.equals(this.to, transactionResult.to) &&
        Objects.equals(this.transactionHash, transactionResult.transactionHash) &&
        Objects.equals(this.value, transactionResult.value) &&
        Objects.equals(this.nonce, transactionResult.nonce) &&
        Objects.equals(this.transactionId, transactionResult.transactionId) &&
        Objects.equals(this.typeInt, transactionResult.typeInt) &&
        Objects.equals(this.accountKey, transactionResult.accountKey);
  }

  @Override
  public int hashCode() {
    return Objects.hash(from, gas, gasPrice, input, rlp, signatures, status, to, transactionHash, value, nonce, transactionId, typeInt, accountKey);
  }


  @Override
  public String toString() {
    StringBuilder sb = new StringBuilder();
    sb.append("class TransactionResult {\n");
    
    sb.append("    from: ").append(toIndentedString(from)).append("\n");
    sb.append("    gas: ").append(toIndentedString(gas)).append("\n");
    sb.append("    gasPrice: ").append(toIndentedString(gasPrice)).append("\n");
    sb.append("    input: ").append(toIndentedString(input)).append("\n");
    sb.append("    rlp: ").append(toIndentedString(rlp)).append("\n");
    sb.append("    signatures: ").append(toIndentedString(signatures)).append("\n");
    sb.append("    status: ").append(toIndentedString(status)).append("\n");
    sb.append("    to: ").append(toIndentedString(to)).append("\n");
    sb.append("    transactionHash: ").append(toIndentedString(transactionHash)).append("\n");
    sb.append("    value: ").append(toIndentedString(value)).append("\n");
    sb.append("    nonce: ").append(toIndentedString(nonce)).append("\n");
    sb.append("    transactionId: ").append(toIndentedString(transactionId)).append("\n");
    sb.append("    typeInt: ").append(toIndentedString(typeInt)).append("\n");
    sb.append("    accountKey: ").append(toIndentedString(accountKey)).append("\n");
    sb.append("}");
    return sb.toString();
  }

  /**
   * Convert the given object to string with each line indented by 4 spaces
   * (except the first line).
   */
  private String toIndentedString(Object o) {
    if (o == null) {
      return "null";
    }
    return o.toString().replace("\n", "\n    ");
  }

}
